:060000000A128A11142906
:10000800F000030EF1000B18B8210B100B19592240
:100018000C18C2210C10710E8300F00E700E09002E
:100200008A010A140F3982073F3406345B344F34B5
:1002100066346D347D3407347F346F3477347C3406
:1002200039345E34793471340317831688018901B7
:1002300003138316061486140615861206138613F6
:100240008501870188018901031383168113031334
:10025000831607309500031383160F128F160F13A2
:100260000F140313831607309600031383120B1029
:100270008B178B158B160B110313831681128111AB
:100280000114811401150313831290161016901097
:100290001014031383124E309200031383168C1430
:1002A0000C14031383128C100C100313831285019A
:1002B0008601870188018901A0010A30C400143039
:1002C000C5001E30C600CB210130430203190722AE
:1002D00002304302031911220330430203191B2287
:1002E0000430430203192522053043020319C301D8
:1002F00063292A08AF00AD010A302F020318AD0AA6
:100300000318AF0003187C2986210800AE010130D4
:10031000AF020318AE0A031C080087292B08B2009D
:10032000B0010A3032020318B00A0318B2000318F1
:1003300091299B210800B1010130B2020318B10AD2
:10034000031C08009C292C08B500B4010A303502B2
:100350000318B40A0318B5000318A629B021080031
:10036000B3010130B5020318B30A031C0800B12918
:100370000618C30A080003303902031D0800BA0337
:10038000B90108000C18031383127C308E00E13091
:100390008F00BC0A080009143918DB29B918E529AF
:1003A0003919F02903114408AA003C08AA02031DC8
:1003B000DA293914080003114508AB003C08AB02E8
:1003C000031DE4293910B914080003114508AC00D5
:1003D0003C08AC02031DEF293910B910391508008B
:1003E000B901BC010C1008002D080021A2002E0844
:1003F0000021A30030080021A40031080021A5003D
:1004000034080021A60033080021A70008000910C5
:10041000891409110A30AA00861C292A061D312ACE
:1004200008000914891409110A30AB00861C392A06
:10043000061D412A08000910891009150A30AC0070
:10044000861C492A061D512A08000914891009151D
:100450000800AA0A15302A02031D302A0A30AA0011
:100460000800AA0309302A02031D382A0A30AA000C
:100470000800AB0A15302B02031D402A0A30AB00DE
:100480000800AB0309302B02031D482A0A30AB00D9
:100490000800AC0A15302C02031D502A0A30AC00AB
:1004A0000800AC0309302C02031D582A0A30AC00A6
:1004B0000800FF3081000B11880121186F2AA11854
:1004C000732A2119772AA1197B2A211A7F2AA11AB6
:1004D000832A211B872A2208870008148B2A2308D5
:1004E000870088148E2A240887000815912A250879
:1004F00087008815942A260887000816972A270857
:10050000870088169A2A2808870008179D2A290834
:1005100087008817A02A0130A10608000330A10631
:1005200008000630A10608000C30A10608001830AB
:10053000A10608003030A10608006030A1060800BE
:04054000A10108000D
:04400E00D430FF3F6C
:00000001FF
