:060000000A128A11142906
:10000800F000030EF1000B1C09220B100B191C2227
:0A001800710E8300F00E700E090057
:100200008A010A140F3982073F3406345B344F34B5
:1002100066346D347D3407347F346F3477347C3406
:1002200039345E34793471340317831688018901B7
:1002300003138316061486140615861206138613F6
:100240008501870188018901031383168113031334
:10025000831607309500031383160F128F160F13A2
:100260000F140313831607309600031383120B1029
:100270008B178B158B160B110313831681128111AB
:100280000114811401150313831290161016901097
:100290001014031383124E309200031383168C1430
:1002A0000C14031383128C100C100313831285019A
:1002B0008601870188018901A0019F21FD215D2917
:1002C0002A08AF00AD010A302F020318AD0A031847
:1002D000AF00031863296D210800AE010130AF02A1
:1002E0000318AE0A031C08006E292B08B200B001E7
:1002F0000A3032020318B00A0318B2000318782932
:1003000082210800B1010130B2020318B10A031CB6
:10031000080083292C08B500B4010A3035020318FF
:10032000B40A0318B50003188D2997210800B301FA
:100330000130B5020318B30A031C080098290914F8
:10034000891009110800AA0A1430AA02031D861C8C
:100350000A30AA006021AD080021A200AE080021E9
:10036000A3000800AA030A30AA02031D061D1430C8
:10037000AA006021AD080021A200AE080021A30060
:100380000800AB0A1430AB02031D861C0A30AB0018
:100390007521B0080021A200B1080021A3000800C7
:1003A000AB030A30AB02031D061D1430AB007521F0
:1003B000B0080021A200B1080021A3000800AC0A87
:1003C0001430AC02031D861C0A30AC008A21B4082C
:1003D0000021A200B3080021A3000800AC030A30EA
:1003E000AC02031D061D1430AC008A21B4080021A4
:1003F000A200B3080021A300080002302002031D60
:100400000C220800FE3081000B11FE3081000B1120
:100410000800061CA00A0800091089140911080028
:100420000914891409110800091089100915080018
:100430000914891009150C28FF3081000B1188015F
:100440002118322AA118362A21193A2AA1193E2A3E
:10045000211A422AA11A462A211B4A2AA2088700E9
:1004600008144E2AA30887008814512AA40887007C
:100470000815542AA50887008815572AA60887005A
:1004800008165A2AA708870088165D2AA808870038
:100490000817602AA90887008817632A0130A10677
:1004A00008000330A10608000630A10608000C3041
:1004B000A10608001830A10608003030A106080087
:0A04C0006030A1060800A101080049
:04400E00D430FF3F6C
:00000001FF
