:060000000A128A11142906
:10000800F000030EF1000B19EA210C18A9210C10BD
:0A001800710E8300F00E700E090057
:100200008A010A140F3982073F3406345B344F34B5
:1002100066346D347D3407347F346F3477347C3406
:1002200039345E34793471340317831688018901B7
:1002300003138316061486140615861206138613F6
:100240008501870188018901031383168113031334
:10025000831607309500031383160F128F160F13A2
:100260000F140313831607309600031383120B1029
:100270008B178B158B160B110313831681128111AB
:100280000114811401150313831290161016901097
:100290001014031383124E309200031383168C1430
:1002A0000C14031383128C100C100313831285019A
:1002B0008601870188018901A001B221632178218B
:1002C0008D21D7215D292A08AF00AD010A302F0208
:1002D0000318AD0A0318AF0003186629702108003F
:1002E000AE010130AF020318AE0A031C08007129E9
:1002F0002B08B200B0010A3032020318B00A03180A
:10030000B20003187B2985210800B1010130B20237
:100310000318B10A031C080086292C08B500B40193
:100320000A3035020318B40A0318B50003189029DF
:100330009A210800B3010130B5020318B30A031C67
:1003400008009B2903303902031D0800BA03B901D4
:1003500008000C1803138312E1308E007C308F00EC
:10036000BC0A08000914891009113918C229B918E2
:10037000CC2903110530AA003C08AA02031DC1299B
:100380003914080003110A30AB003C08AB02031D0E
:10039000CB293910B914080003110A30AC003C080D
:1003A000AC02031DD6293910B910391508002D08E3
:1003B0000021A2002E080021A30030080021A40083
:1003C00031080021A50034080021A60033080021CF
:1003D000A7000800FF3081000B1188012118002AB6
:1003E000A118042A2119082AA1190C2A211A102A55
:1003F000A11A142A211B182A2208870008141C2A73
:100400002308870088141F2A240887000815222A39
:10041000250887008815252A260887000816282A17
:100420002708870088162B2A2808870008172E2AF5
:10043000290887008817312A0130A10608000330F7
:10044000A10608000630A10608000C30A10608002D
:100450001830A10608003030A10608006030A1065F
:060460000800A1010800E4
:04400E00D430FF3F6C
:00000001FF
