:060000000A128A11132907
:10000800F000030EF1000B18D4210B100B198F22EE
:100018000C18E7210C10710E8300F00E700E090009
:100200008A010A1482073F3406345B344F34663463
:100210006D347D3407347F346F3477347C34393433
:100220005E3479347134031783168801890103130E
:100230008316061486140615861206138613850186
:100240008701880189010313831681130313831621
:1002500007309500031383160F128F160F130F1418
:100260000313831607309600031383120B108B17AA
:100270008B158B160B110313831681128111011438
:100280008114011503138312901610169010101488
:10029000031383124E309200031383168C140C1434
:1002A000031383128C100C10031383128501860133
:1002B000870188018901A0010A30C8001430C900F3
:1002C0001E30CA000A30CB00F0211922013047024B
:1002D000031968220230470203196E2203304702D5
:1002E000031974220430470203197A2205304702A9
:1002F0000319C70180219521AA21BF214F2264291A
:100300002A08B000AE010A3030020318AE0A031802
:10031000B000031883298D210800AF010130B0021D
:100320000318AF0A031C08008E292B08B300B10183
:100330000A3033020318B10A0318B30003189829CE
:10034000A2210800B2010130B3020318B20A031C53
:100350000800A3292C08B600B5010A30360203189C
:10036000B50A0318B6000318AD29B7210800B40177
:100370000130B6020318B40A031C0800B8294B0860
:10038000B900CC010A3039020318CC0A0318B900AD
:100390000318C229CC210800CD010130B90203188D
:1003A000CD0A031C0800CD29061CC70A861CCB0AEF
:1003B00015304B02031DDE290A30CB00061DCB038E
:1003C00009304B02031DE6290A30CB0008000C1847
:1003D000031383127C308E00E1308F00C00A0800C6
:1003E00009143D18002ABD180A2A3D19152A0311BF
:1003F0004808AA004008AA02031DFF293D1408006E
:1004000003114908AB004008AB02031D092A3D1047
:10041000BD14080003114A08AC004008AC02031DDB
:10042000142A3D10BD103D150800BD01C0010C107F
:10043000080051182F2AD118382A5119412AD119E8
:100440004C2A03110515851586162A08D200063098
:10045000D2024008D202031D2E2A511408000311B3
:1004600003304002031D372AD114051185140800FA
:10047000031103304002031D402A51158510051455
:10048000080003112A082C07D5004002031D4B2A3F
:10049000D1150510851508000800080008002E0871
:1004A0000021A2002F080021A30031080021A40090
:1004B00032080021A50035080021A60034080021DB
:1004C000A7004C080021A8004D080021A900080041
:1004D0000910891409114B08CE0008000914891469
:1004E00009114B08CF0008000910891009154B08A5
:1004F000D0000800091489100915861C8222061DE7
:100500008D2208000030AA00AB00AC004E08AA0003
:100510004F08AB005008AC00080064290800FF3009
:1005200081000B1188012118A52AA118A92A2119D7
:10053000AD2AA119B12A211AB52AA11AB92A211B5B
:10054000BD2A220887000814C12A230887008814BE
:10055000C42A240887000815C72A2508870088159B
:10056000CA2A260887000816CD2A27088700881679
:10057000D02A280887000817D32A29088700881757
:10058000D62A0130A10608000330A1060800063073
:10059000A10608000C30A10608001830A1060800CA
:1005A0003030A10608006030A1060800A101080053
:04400E00D430FF3F6C
:00000001FF
