:060000000A128A11132907
:10000800F000030EF1000B18D8210B100B19E12298
:100018000C18EB210C10710E8300F00E700E090005
:100200008A010A1482073F3406345B344F34663463
:100210006D347D3407347F346F3477347C34393433
:100220005E3479347134031783168801890103130E
:100230008316061486140615861206138613850186
:100240008701880189010313831681130313831621
:1002500007309500031383160F128F160F130F1418
:100260000313831607309600031383120B108B17AA
:100270008B158B160B110313831681128111011438
:100280008114011503138312901610169010101488
:10029000031383124E309200031383168C140C1434
:1002A000031383128C100C10031383128501860133
:1002B000870188018901A0010A30AA00C8000A301C
:1002C000AB00C9000A30AC00CA000A30CB005E1493
:1002D0005E180D22013047020319A922023047029D
:1002E0000319AF22033047020319B5220430470235
:1002F0000319BB22053047020319C7018421992144
:10030000AE21C321902268292A08B000AE010A302C
:1003100030020318AE0A0318B00003188729912190
:100320000800AF010130B0020318AF0A031C080037
:1003300092292B08B300B1010A3033020318B10A25
:100340000318B30003189C29A6210800B20101304C
:10035000B3020318B20A031C0800A7292C08B60030
:10036000B5010A3036020318B50A0318B60003189F
:10037000B129BB210800B4010130B6020318B40A48
:10038000031C0800BC294B08B900CC010A30390213
:100390000318CC0A0318B9000318C629D021080095
:1003A000CD010130B9020318CD0A031C0800D12980
:1003B000061CC70A861CCB0A15304B02031DE22916
:1003C0000A30CB00061DCB0309304B02031DEA297E
:1003D0001430CB0008000C18031383127C308E00FD
:1003E000E1308F002018FD29A018052AAA03031D5B
:1003F0000C2A4808AA0020140800AB03031D0C2A8D
:100400004908AB002010A0140800AC03031D0C2AFF
:100410004A08AC00A001080008005118282AD11889
:10042000322A51193F2AD1194B2A511A582AD11A66
:10043000682A511B772AD11B872A031105158515B8
:1004400086162A08D2000630D20203195114080079
:10045000031103302A02031D312A0511851451109E
:10046000D1140800031103302A02031D3D2A511044
:10047000D11051158510051485168511080003113A
:100480002B08D6000630D602031D4A2A5110D1107F
:100490005111D1150800031103302B02031D572AF7
:1004A000851205165110D1105111D11151160800A5
:1004B000031103302B02031D672A051285158617C9
:1004C00086125110D1105111D1115112D1160800BC
:1004D00003112C08DA000630DA02031D762A5110C7
:1004E000D1105111D1115112D1125117080003111D
:1004F00003302C02031D862A861306175110D110D3
:100500005111D1115112D1125113D11708000311F9
:1005100003302C02031D8F2A86160612D101080013
:100520002E080021A2002F080021A300310800217D
:10053000A40032080021A50035080021A6003408D7
:100540000021A7004C080021A8004D080021A900A7
:1005500008000910891409114B08CE00080009147D
:10056000891409114B08CF000800091089100915DA
:100570004B08D00008000914891009158618C422F8
:100580000619DD22C70108005E1009148914091537
:10059000051485100511851505120512861606131A
:1005A00086134E08AA00C8004F08AB00C9005008C7
:1005B000AC00CA00C7015E1408005E10C7015E14DB
:1005C0000800FF3081000B1188012118F72AA118BB
:1005D000FB2A2119FF2AA119032B211A072BA11A83
:1005E0000B2B211B0F2B220887000814132B230829
:1005F00087008814162B240887000815192B250856
:10060000870088151C2B2608870008161F2B270833
:1006100087008816222B280887000817252B290811
:1006200087008817282B0130A10608000330A10697
:1006300008000630A10608000C30A106080018309A
:10064000A10608003030A10608006030A1060800AD
:04065000A1010800FC
:04400E00D430FF3F6C
:00000001FF
