:060000000A128A11132907
:10000800F000030EF1000B18DC210B100B1926234E
:100018000C18EF210C10710E8300F00E700E090001
:100200008A010A1482073F3406345B344F34663463
:100210006D347D3407347F346F3477347C34393433
:100220005E3479347134031783168801890103130E
:100230008316061486140615861206138613850186
:100240008701880189010313831681130313831621
:1002500007309500031383160F128F160F130F1418
:100260000313831607309600031383120B108B17AA
:100270008B158B160B110313831681128111011438
:100280008114011503138312901610169010101488
:10029000031383124E309200031383168C140C1434
:1002A000031383128C100C10031383128501860133
:1002B000870188018901A0010A30AA00BC000A3028
:1002C000AB00BD000A30AC00BE000A30BF004714CE
:1002D0000230CC000630CD004718122201303B021C
:1002E0000319DD2202303B020319E62203303B02F0
:1002F0000319EF2204303B020319F82205303B02B8
:100300000319BB0188219D21B221C721C4226C2978
:100310002A08AF00AD010A302F020318AD0A0318F6
:10032000AF0003188B2995210800AE010130AF0200
:100330000318AE0A031C080096292B08B200B0016E
:100340000A3032020318B00A0318B2000318A029B9
:10035000AA210800B1010130B2020318B10A031C3E
:100360000800AB292C08B500B4010A303502031887
:10037000B40A0318B5000318B529BF210800B3015A
:100380000130B5020318B30A031C0800C0293F0856
:10039000B800C0010A3038020318C00A0318B800B8
:1003A0000318CA29D4210800C1010130B80203187A
:1003B000C10A031C0800D529061CBB0A861CBF0AFB
:1003C00015303F02031DE6290A30BF00061DBF039A
:1003D00009303F02031DEE291430BF0008000C183D
:1003E000031383127C308E00E1308F00BA0A20188C
:1003F000022AA0180A2AAA03031D112A3C08AA00EF
:1004000020140800AB03031D112A3D08AB00201087
:10041000A0140800AC03031D112A3E08AC00A00183
:100420000800080045183B2AC5184C2A45195A2AC5
:10043000C5196C2A451A7D2AC51A8B2A451B9D2A87
:10044000C51BAE2A4618BD2A0311051085100515D7
:100450008515051285128616061386132A08CA000A
:100460004C08CA024A08C9003A08CA02031D3A2ABF
:1004700005114514080003110515C830C800C80B44
:100480003F2A051103304907CB003A08CB02031D70
:100490004B2A4510C514080003118514063049077E
:1004A000B9003A08B902031D592AC510451585102F
:1004B000BA01080003118511051485162B08CA001E
:1004C0004C08CA024A08C9003A08CA02031D6B2A2E
:1004D00085124511C515080003118516C830C800DE
:1004E000C80B702A851203304907CB003A08CB02AB
:1004F000031D7C2AC5114516080003110516063098
:100500004907B9003A08B902031D8A2A4512C516DF
:100510000512BA01080003118612851586172B08EB
:10052000CA004D08CA024A08C9003A08CA02031D97
:100530009C2A8613C5124517080003118617C83078
:10054000C800C80BA12A861303304907CB003A081C
:10055000CB02031DAD2A4513C5170800031106176A
:1005600006304907B9003A08B902031DBC2AC51371
:10057000461406138616BA010800CA01CB01B90158
:10058000C901C501461008002D080021A2002E084F
:100590000021A30030080021A40031080021A5009B
:1005A00034080021A60033080021A70040080021DC
:1005B000A80041080021A9000800C7144715C71565
:1005C0000910891409113F08C2000800C714471513
:1005D000C7150914891409113F08C3000800C7147E
:1005E0004715C7150910891009153F08C4000800F0
:1005F000C7104711C711091489100915861C032358
:10060000061D202308004710091489140915420803
:10061000AA00BC004308AB00BD004408AC00BE000B
:10062000C501C601CA01CB01B901C901BA01A001C6
:1006300006302A02CC0004302B02CD0047140800FB
:100640004710BB01C501C60147140800FF308100F7
:100650000B11880121183C2BA118402B2119442B88
:10066000A119482B211A4C2BA11A502B211B562BB8
:100670002208870008145C2B2308870088145F2B4E
:10068000240887000815622B250887008815652B2C
:10069000260887000816682B2708870088166B2B0A
:1006A000C71C6E2B2808870008176E2BC71C712BE0
:1006B000290887008817712B0130A1060800033034
:1006C000A10608000630A10608000C30A1060800AB
:1006D0001830A10608003030A10608006030A106DD
:0606E0000800A101080062
:04400E00D430FF3F6C
:00000001FF
