:060000000A128A11142906
:10000800F000030EF1000B183328201C1328A01C45
:100018001C28201D2128A01D2628201E2B28861CD0
:100028000000061D00008821061C20140B10332830
:100038008821061CA0140B1033289021061C2015BB
:100048000B1033289821061CA0150B103328861C8A
:10005800CA21061D8821061C20160B103328710E94
:080068008300F00E700E090088
:100200008A010A140F3982073F3406345B344F34B5
:1002100066346D347D3407347F346F3477347C3406
:1002200039345E34793471340317831688018901B7
:1002300003138316061486140615861206138613F6
:100240008501870188018901031383168113031334
:10025000831607309500031383160F128F160F13A2
:100260000F140313831607309600031383120B1029
:100270008B178B158B160B110313831681128111AB
:100280000114811401150313831290161016901097
:100290001014031383124E309200031383168C1430
:1002A0000C14031383128C100C100313831285019A
:1002B000860187018801890120186629A0186A290A
:1002C00020196C29A0196F29201A71290910891089
:1002D00009115C2909145C29091089145C29091485
:1002E0005C2909155C292A08AF00AD010A302F02EC
:1002F0000318AD0A0318AF000318762980210800FF
:10030000AE010130AF020318AE0A031C08008129B8
:100310000A30AA002A08861CA021061DA721080071
:100320000A30AB002B08861CAE21061DB521080043
:100330000A30AC002C08861CBC21061DC321080015
:10034000013E1430AA02031D861C0A30AA00013C9B
:100350000A30AA02031D061D1430AA00013E143003
:10036000AB02031D861C0A30AB00013C0A30AB0215
:10037000031D061D1430AB00013E1430AC02031DFA
:10038000861C0A30AC00013C0A30AC02031D061D7D
:100390001430AC002A0888012118DE29A118E229AE
:1003A0002119E629A119EA29211AEE29A11AF2290F
:1003B000211BF629A20887000814FA29A308870040
:1003C0008814FD29A40887000815002AA5088700BD
:1003D0008815032AA60887000816062AA70887009A
:1003E0008816092AA808870008170C2AA908870078
:1003F00088170F2A0130A10608000330A106080063
:100400000630A10608000C30A10608001830A1062D
:1004100008003030A10608006030A1060800A101E4
:020420000800D2
:04400E00D430FF3F6C
:00000001FF
