:060000000A128A11142906
:10000800F000030EF1000B182528201C0D28A01C59
:100018001528861C0000061D0000061C20140B1065
:100028002528861CA20A061DA203061CA0140B1074
:100038002528861CA30A061DA303061C20150B10E1
:0C0048002528710E8300F00E700E0900D8
:100200008A010A140F3982073F3406345B344F34B5
:1002100066346D347D3407347F346F3477347C3406
:1002200039345E34793471340317831688018901B7
:1002300003138316061486140615861206138613F6
:100240008501870188018901031383168113031334
:10025000831607309500031383160F128F160F13A2
:100260000F140313831607309600031383120B1029
:100270008B178B158B160B110313831681128111AB
:100280000114811401150313831290161016901097
:100290001014031383124E309200031383168C1430
:1002A0000C14031383128C100C100313831285019A
:1002B000860187018801890120186629A0186A290A
:1002C00020196C29A0196F29201A71290910891089
:1002D00009115C2909145C29091089145C29091485
:1002E0005C2909155C29880121188429A11886290F
:1002F00021198829A1198A29211A8C29A11A8E2944
:10030000211B9029081492298814952908159829E9
:1003100088159B2908169E298816A1290817A42943
:100320008817A7290130A10608000330A10608009C
:100330000630A10608000C30A10608001830A106FE
:1003400008003030A10608006030A1060800A101B5
:020350000800A3
:04400E00D430FF3F6C
:00000001FF
