:060000000A128A11142906
:10000800F000030EF1000B1C2B28201C1328A01C49
:100018001B28201D2028A01D2528201E2A28861CD4
:100028000000061D0000061C20140B102B281622A9
:10003800061CA0140B102B282022061C20150B10C0
:100048002B282A22061CA0150B102B282B28710EF2
:080058008300F00E700E090098
:100200008A010A140F3982073F3406345B344F34B5
:1002100066346D347D3407347F346F3477347C3406
:1002200039345E34793471340317831688018901B7
:1002300003138316061486140615861206138613F6
:100240008501870188018901031383168113031334
:10025000831607309500031383160F128F160F13A2
:100260000F140313831607309600031383120B1029
:100270008B178B158B160B110313831681128111AB
:100280000114811401150313831290161016901097
:100290001014031383124E309200031383168C1430
:1002A0000C14031383128C100C100313831285019A
:1002B00086018701880189013522201CA729A01CFD
:1002C000AB29201DAF29A01DB329201EB7295C2909
:1002D0002A08AF00AD010A302F020318AD0A031837
:1002E000AF0003186B2975210800AE010130AF0281
:1002F0000318AE0A031C080076292B08B200B001CF
:100300000A3032020318B00A0318B2000318802919
:100310008A210800B1010130B2020318B10A031C9E
:1003200008008B292C08B500B4010A3035020318E7
:10033000B40A0318B500031895299F210800B301DA
:100340000130B5020318B30A031C0800A0290914E0
:10035000891009115C290910891409115C290914F3
:10036000891409115C290910891009155C290914DF
:10037000891009155C290800AA0A1430AA02031D75
:10038000861C0A30AA006821AD080021A200AE0830
:100390000021A3000800AA030A30AA02031D061DBB
:1003A0001430AA006821AD080021A200AE08002187
:1003B000A3000800AB0A1430AB02031D861C0A30F0
:1003C000AB007D21B0080021A200B1080021A300EC
:1003D0000800AB030A30AB02031D061D1430AB004E
:1003E0007D21B0080021A200B1080021A30008006F
:1003F000AC0A1430AC02031D861C0A30AC009221FA
:10040000B4080021A200B3080021A3000800AC0337
:100410000A30AC02031D061D1430AC009221B40852
:100420000021A200B3080021A30008000A30AA009E
:10043000861CBC29061DCB29061CA0140B102B28DA
:100440000A30AB00861CDA29061DE929061C201596
:100450000B102B280A30AC00861CF829061D072A31
:10046000061CA0150B102B282B2888012118482AC0
:10047000A1184C2A2119502AA119542A211A582AA4
:10048000A11A5C2A211B602AA20887000814642A8A
:10049000A30887008814672AA408870008156A2A19
:1004A000A508870088156D2AA60887000816702AF7
:1004B000A70887008816732AA80887000817762AD5
:1004C000A90887008817792A0130A106080003309F
:1004D000A10608000630A10608000C30A10608009D
:1004E0001830A10608003030A10608006030A106CF
:0604F0000800A101080054
:04400E00D430FF3F6C
:00000001FF
