:060000000A128A11142906
:10000800F000030EF1000B19E7210C18AF210C10BA
:0A001800710E8300F00E700E090057
:100200008A010A140F3982073F3406345B344F34B5
:1002100066346D347D3407347F346F3477347C3406
:1002200039345E34793471340317831688018901B7
:1002300003138316061486140615861206138613F6
:100240008501870188018901031383168113031334
:10025000831607309500031383160F128F160F13A2
:100260000F140313831607309600031383120B1029
:100270008B178B158B160B110313831681128111AB
:100280000114811401150313831290161016901097
:100290001014031383124E309200031383168C1430
:1002A0000C14031383128C100C100313831285019A
:1002B0008601870188018901A0010A30AA000A305D
:1002C000AB000A30AC00B82169217E219321D421F2
:1002D00063292A08AF00AD010A302F020318AD0AC6
:1002E0000318AF0003186C2976210800AE01013015
:1002F000AF020318AE0A031C080077292B08B200CE
:10030000B0010A3032020318B00A0318B200031811
:1003100081298B210800B1010130B2020318B10A12
:10032000031C08008C292C08B500B4010A303502E2
:100330000318B40A0318B50003189629A021080071
:10034000B3010130B5020318B30A031C0800A12948
:1003500003303902031D0800BA03B90108000C1864
:1003600003138312E1308E007C308F00BC0A08003A
:100370000914891009113918C629B918CD29031192
:100380003C08AA02031DC5293914080003113C08C2
:10039000AB02031DCC29B914080003113C08AC02C0
:1003A000031DD329B91408002D080021A2002E082E
:1003B0000021A30030080021A40031080021A5007D
:1003C00034080021A60033080021A7000800FF30F0
:1003D00081000B1188012118FD29A118012A21197A
:1003E000052AA119092A211A0D2AA11A112A211B4D
:1003F000152A220887000814192A23088700881460
:100400001C2A2408870008151F2A2508870088153C
:10041000222A260887000816252A2708870088161A
:10042000282A2808870008172B2A290887008817F8
:100430002E2A0130A10608000330A106080006306C
:10044000A10608000C30A10608001830A10608001B
:100450003030A10608006030A1060800A1010800A4
:04400E00D430FF3F6C
:00000001FF
