:060000000A128A11132907
:10000800F000030EF1000B18D8210B100B19182360
:100018000C18EB210C10710E8300F00E700E090005
:100200008A010A1482073F3406345B344F34663463
:100210006D347D3407347F346F3477347C34393433
:100220005E3479347134031783168801890103130E
:100230008316061486140615861206138613850186
:100240008701880189010313831681130313831621
:1002500007309500031383160F128F160F130F1418
:100260000313831607309600031383120B108B17AA
:100270008B158B160B110313831681128111011438
:100280008114011503138312901610169010101488
:10029000031383124E309200031383168C140C1434
:1002A000031383128C100C10031383128501860133
:1002B000870188018901A0010A30AA00C8000A301C
:1002C000AB00C9000A30AC00CA000A30CB005E1493
:1002D0005E180E22013047020319E2220230470263
:1002E0000319E822033047020319EE2204304702C3
:1002F0000319F422053047020319C701842199210B
:10030000AE21C321C92268292A08B000AE010A30F3
:1003100030020318AE0A0318B00003188729912190
:100320000800AF010130B0020318AF0A031C080037
:1003300092292B08B300B1010A3033020318B10A25
:100340000318B30003189C29A6210800B20101304C
:10035000B3020318B20A031C0800A7292C08B60030
:10036000B5010A3036020318B50A0318B60003189F
:10037000B129BB210800B4010130B6020318B40A48
:10038000031C0800BC294B08B900CC010A30390213
:100390000318CC0A0318B9000318C629D021080095
:1003A000CD010130B9020318CD0A031C0800D12980
:1003B000061CC70A861CCB0A15304B02031DE22916
:1003C0000A30CB00061DCB0309304B02031DEA297E
:1003D0001430CB0008000C18031383127C308E00FD
:1003E000E1308F00C00A2018FE29A018062AAA03AF
:1003F000031D0D2A4808AA0020140800AB03031DA2
:100400000D2A4908AB002010A0140800AC03031DFE
:100410000D2A4A08AC00A0010800080051182E2A35
:10042000D118412A5119532AD119632A511A792A0C
:10043000D11A8E2A511BA12AD11BBA2A03110515E4
:10044000851586162A0852080630D2025208E000A6
:100450004008D202031D2D2A511408000311033055
:100460006007D3004008D3020511C830DF00DF0B5E
:10047000372A0515031D402A051185145110D11482
:100480000800031106306007D4004008D402031DA1
:10049000522A5110D1105115851005148516851159
:1004A0000030C000080003112B08D2000630D20231
:1004B0005208E0004008D202031D622A5110D110F8
:1004C0005111D1150800031103306007D300400813
:1004D000D3028512C830DF00DF0B6C2A8516031D9E
:1004E000782A851205165110D1105111D1115116CB
:1004F0000800031106306007D4004008D402031D31
:100500008D2A05128515861786125110D1105111AA
:10051000D1115112D1160030C000080003112C086F
:10052000D2000630D2025208E0004008D202031D79
:10053000A02A5110D1105111D1115112D1125117BD
:100540000800031103306007D3004008D30286136C
:10055000C830DF00DF0BAA2A8617031DB92A8613CD
:1005600006175110D1105111D1115112D11251133E
:10057000D1170800031106306007D4004008D402E8
:10058000031DC82A861606130510D1010030C000CD
:1005900008002E080021A2002F080021A300310826
:1005A0000021A40032080021A50035080021A60082
:1005B00034080021A7004C080021A8004D080021A4
:1005C000A90008000910891409114B08CE00080081
:1005D0000914891409114B08CF000800091089106B
:1005E00009154B08D0000800091489100915861C4C
:1005F000FC22061D142308005E1009148914091535
:1006000005148510051185150512051286160613A9
:1006100086134E08AA00C8004F08AB00C900500856
:10062000AC00CA005E1408005E10C7015E1408002A
:10063000FF3081000B11880121182E2BA118322BBD
:100640002119362BA1193A2B211A3E2BA11A422B24
:10065000211B462B2208870008144A2B23088700F9
:1006600088144D2B240887000815502B2508870077
:100670008815532B260887000816562B2708870055
:100680008816592B2808870008175C2B2908870033
:1006900088175F2B0130A10608000330A10608006F
:1006A0000630A10608000C30A10608001830A1068B
:1006B00008003030A10608006030A1060800A10142
:0206C000080030
:04400E00D430FF3F6C
:00000001FF
