:060000000A128A11132907
:10000800F000030EF1000B18D8210B100B199723E1
:100018000C18EB210C10710E8300F00E700E090005
:100200008A010A1482073F3406345B344F34663463
:100210006D347D3407347F346F3477347C34393433
:100220005E3479347134031783168801890103130E
:100230008316061486140615861206138613850186
:100240008701880189010313831681130313831621
:1002500007309500031383160F128F160F130F1418
:100260000313831607309600031383120B108B17AA
:100270008B158B160B110313831681128111011438
:100280008114011503138312901610169010101488
:10029000031383124E309200031383168C140C1434
:1002A000031383128C100C10031383128501860133
:1002B000870188018901A0010A30AA00C8000A301C
:1002C000AB00C9000A30AC00CA000A30CB005F1492
:1002D0005F180E220130470203195E2302304702E5
:1002E00003196723033047020319702304304702C0
:1002F00003197923053047020319C7018421992185
:10030000AE21C321452368292A08B000AE010A3076
:1003100030020318AE0A0318B00003188729912190
:100320000800AF010130B0020318AF0A031C080037
:1003300092292B08B300B1010A3033020318B10A25
:100340000318B30003189C29A6210800B20101304C
:10035000B3020318B20A031C0800A7292C08B60030
:10036000B5010A3036020318B50A0318B60003189F
:10037000B129BB210800B4010130B6020318B40A48
:10038000031C0800BC294B08B900CC010A30390213
:100390000318CC0A0318B9000318C629D021080095
:1003A000CD010130B9020318CD0A031C0800D12980
:1003B000061CC70A861CCB0A15304B02031DE22916
:1003C0000A30CB00061DCB0309304B02031DEA297E
:1003D0001430CB0008000C18031383127C308E00FD
:1003E000E1308F00C00A2018FE29A018062AAA03AF
:1003F000031D0D2A4808AA0020140800AB03031DA2
:100400000D2A4908AB002010A0140800AC03031DFE
:100410000D2A4A08AC00A00108000800DF105F1197
:10042000DF110515851585160A302A0203190510F6
:10043000031985150319861606302A0203190511BA
:10044000031905150319051105302A0203190515AD
:10045000031905110319051504302A0203190511A2
:10046000031905150319051103302A020319851410
:1004700000302A0203198510051103190A302B02D6
:100480000319851603190514031985110319861616
:1004900006302B02031985120319851603198512DC
:1004A00005302B02031985160319851203198516C9
:1004B00004302B02031985120319851603198512BE
:1004C00003302B020319051200302B020319051209
:1004D00003190A302C02031986170319051403198E
:1004E00085150319861206302C0203198613031989
:1004F00086170319861305302C0203198617031972
:1005000086130319861704302C0203198613031966
:1005100086170319861303302C02031906170030BF
:100520002C0203190613031908005118BD2AD1180B
:10053000D02A5119E02AD119EE2A511A012BD11AC9
:10054000112B511B1F2BD11B322B5218412B031186
:1005500005158515861605108510051285120613DA
:1005600086132A0857080630D7025708E1004008CA
:10057000D702031DBC2A5114080003110330610780
:10058000D4004008D4020511C830E000E00BC62AB0
:100590000515031DCF2A051185145110D11408002B
:1005A000031106306107D5004008D502031DDF2A7C
:1005B000D11051158510051485168511C00108004C
:1005C00003112B08D7000630D7025708E100400876
:1005D000D702031DED2A5111D11508000311033074
:1005E0006107D4004008D4028512C830E000E00B57
:1005F000F72A8516031D002B85120516D1115116F9
:100600000800031106306107D5004008D502031D1C
:10061000102B05128515861786125112D116C001AE
:10062000080003112C08D7000630D7025708E10054
:100630004008D702031D1E2BD112511708000311C9
:1006400003306107D4004008D4028613C830E000AC
:10065000E00B282B8617031D312B86130617511329
:10066000D1170800031106306107D5004008D502F4
:10067000031D402B861606130510D1135214C0011A
:100680000800D1015210E10108002E080021A2004B
:100690002F080021A30031080021A4003208002106
:1006A000A50035080021A60034080021A7004C0849
:1006B0000021A8004D080021A9000800DF145F15E3
:1006C000DF150910891409114B08CE000800DF144A
:1006D0005F15DF150914891409114B08CF000800B4
:1006E000DF145F15DF150910891009154B08D000BC
:1006F0000800DF105F11DF11091489100915861C2D
:100700008423061D932308005F100914891409151A
:100710004E08AA00C8004F08AB00C9005008AC0042
:10072000CA005F1408005F10C7015F140800FF30A3
:1007300081000B1188012118AD2BA118B12B2119B3
:10074000B52BA119B92B211ABD2BA11AC12B211B25
:10075000C72B220887000814CD2B23088700881494
:10076000D02B240887000815D32B2508870088156F
:10077000D62B260887000816D92B2708870088164D
:10078000DC2BDF1CDF2B280887000817DF2BDF1C82
:10079000E22B290887008817E22B0130A106080008
:1007A0000330A10608000630A10608000C30A1069F
:1007B00008001830A10608003030A106080060309B
:0807C000A1060800A1010800D8
:04400E00D430FF3F6C
:00000001FF
