:060000000A128A11132907
:10000800F000030EF1000B18D8210B100B191C235C
:100018000C18EB210C10710E8300F00E700E090005
:100200008A010A1482073F3406345B344F34663463
:100210006D347D3407347F346F3477347C34393433
:100220005E3479347134031783168801890103130E
:100230008316061486140615861206138613850186
:100240008701880189010313831681130313831621
:1002500007309500031383160F128F160F130F1418
:100260000313831607309600031383120B108B17AA
:100270008B158B160B110313831681128111011438
:100280008114011503138312901610169010101488
:10029000031383124E309200031383168C140C1434
:1002A000031383128C100C10031383128501860133
:1002B000870188018901A0010A30AA00BC000A3028
:1002C000AB00BD000A30AC00BE000A30BF004714CE
:1002D00047180E2201303B020319D92202303B029B
:1002E0000319E22203303B020319EB2204303B02E4
:1002F0000319F42205303B020319BB018421992123
:10030000AE21C321C02268292A08AF00AD010A30FE
:100310002F020318AD0A0318AF0003188729912193
:100320000800AE010130AF020318AE0A031C08003A
:1003300092292B08B200B0010A3032020318B00A29
:100340000318B20003189C29A6210800B10101304E
:10035000B2020318B10A031C0800A7292C08B50033
:10036000B4010A3035020318B40A0318B5000318A3
:10037000B129BB210800B3010130B5020318B30A4B
:10038000031C0800BC293F08B800C0010A3038022D
:100390000318C00A0318B8000318C629D0210800A2
:1003A000C1010130B8020318C10A031C0800D12999
:1003B000061CBB0A861CBF0A15303F02031DE2293A
:1003C0000A30BF00061DBF0309303F02031DEA29A2
:1003D0001430BF0008000C18031383127C308E0009
:1003E000E1308F00BA0A2018FE29A018062AAA03B5
:1003F000031D0D2A3C08AA0020140800AB03031DAE
:100400000D2A3D08AB002010A0140800AC03031D0A
:100410000D2A3E08AC00A001080008004518372A44
:10042000C518482A4519562AC519682A451A792A2D
:10043000C51A872A451B992AC51BAA2A4618B92A14
:1004400003110510851005158515051285128616F0
:10045000061386132A08CA000630CA024A08C900D1
:100460003A08CA02031D362A051145140800031173
:100470000515C830C800C80B3B2A051103304907D1
:10048000CB003A08CB02031D472A4510C5140800CB
:100490000311851406304907B9003A08B902031D53
:1004A000552AC51045158510BA010800031185119C
:1004B000051485162B08CA000630CA024A08C9006E
:1004C0003A08CA02031D672A85124511C51508009E
:1004D00003118512C830C800C80B6C2A851203307E
:1004E0004907CB003A08CB02031D782AC5114516EF
:1004F00008000311051606304907B9003A08B90289
:10050000031D862A4512C5160512BA0108000311FB
:100510008612851586172B08CA000530CA024A08BC
:10052000C9003A08CA02031D982A8613C512451746
:10053000080003118617C830C800C80B9D2A86130F
:1005400003304907CB003A08CB02031DA92A451303
:10055000C51708000311061706304907B9003A0805
:10056000B902031DB82AC513461406138616BA012C
:100570000800CA01CB01B901C901C5014610080034
:100580002D080021A2002E080021A3003008002120
:10059000A40031080021A50034080021A60033087A
:1005A0000021A70040080021A80041080021A9005F
:1005B0000800C7144715C7150910891409113F0809
:1005C000C2000800C7144715C7150914891409117A
:1005D0003F08C3000800C7144715C7150910891044
:1005E00009153F08C4000800C7104711C7110914B6
:1005F00089100915861CFF22061D162308004710C6
:100600000914891409154208AA00BC004308AB006C
:10061000BD004408AC00BE00C501C601CA01CB0143
:10062000B901C901BA01A001471408004710BB0174
:10063000C501C60147140800FF3081000B11880175
:100640002118322BA118362B21193A2BA1193E2B38
:10065000211A422BA11A462B211B4C2B2208870062
:100660000814522B230887008814552B2408870070
:100670000815582B2508870088155B2B260887004E
:1006800008165E2B270887008816612BC71C642B71
:10069000280887000817642BC71C672B29088700C8
:1006A0008817672B0130A10608000330A106080057
:1006B0000630A10608000C30A10608001830A1067B
:1006C00008003030A10608006030A1060800A10132
:0206D000080020
:04400E00D430FF3F6C
:00000001FF
