:060000000A128A11132907
:10000800F000030EF1000B18D8210B100B19062372
:100018000C18EB210C10710E8300F00E700E090005
:100200008A010A1482073F3406345B344F34663463
:100210006D347D3407347F346F3477347C34393433
:100220005E3479347134031783168801890103130E
:100230008316061486140615861206138613850186
:100240008701880189010313831681130313831621
:1002500007309500031383160F128F160F130F1418
:100260000313831607309600031383120B108B17AA
:100270008B158B160B110313831681128111011438
:100280008114011503138312901610169010101488
:10029000031383124E309200031383168C140C1434
:1002A000031383128C100C10031383128501860133
:1002B000870188018901A0010A30AA00C8000A301C
:1002C000AB00C9000A30AC00CA000A30CB005F1492
:1002D0005F180D22013047020319CD220230470278
:1002E0000319D622033047020319DF2204304702E4
:1002F0000319E822053047020319C7018421992117
:10030000AE21C321B42268292A08B000AE010A3008
:1003100030020318AE0A0318B00003188729912190
:100320000800AF010130B0020318AF0A031C080037
:1003300092292B08B300B1010A3033020318B10A25
:100340000318B30003189C29A6210800B20101304C
:10035000B3020318B20A031C0800A7292C08B60030
:10036000B5010A3036020318B50A0318B60003189F
:10037000B129BB210800B4010130B6020318B40A48
:10038000031C0800BC294B08B900CC010A30390213
:100390000318CC0A0318B9000318C629D021080095
:1003A000CD010130B9020318CD0A031C0800D12980
:1003B000061CC70A861CCB0A15304B02031DE22916
:1003C0000A30CB00061DCB0309304B02031DEA297E
:1003D0001430CB0008000C18031383127C308E00FD
:1003E000E1308F002018FD29A018052AAA03031D5B
:1003F0000C2A4808AA0020140800AB03031D0C2A8D
:100400004908AB002010A0140800AC03031D0C2AFF
:100410004A08AC00A00108000800DF105F11DF11DE
:100420000A302A0203190515031905100319851549
:100430000319861606302A0203190511031905153A
:100440000319051105302A020319051503190511B1
:100450000319051504302A0203190511031905159E
:100460000319051103302A020319851400302A02EA
:1004700003198510031900302A0203199E220A303D
:100480002B02031985160319851103198516031903
:10049000861606302B0203198512031985160319D7
:1004A000851205302B0203198516031985120319CD
:1004B000851604302B0203198512031985160319BA
:1004C000851203302B020319051600302B02031985
:1004D0000512031900302A0203199E220A302C0249
:1004E00003198617031986120319851503190514B4
:1004F00006302C0203198613031986170319861375
:1005000005302C0203198617031986130319861761
:1005100004302C0203198613031986170319861356
:1005200003302C020319061700302C02031906139E
:10053000031900302C0203199E22080000302A0201
:1005400003190A300319AA00051400302B020319FD
:100550000A300319AB00851500302C0203190A304C
:100560000319AC00861608002E080021A2002F08EF
:100570000021A30031080021A40032080021A500B9
:1005800035080021A60034080021A7004C080021EE
:10059000A8004D080021A9000800DF145F15DF1531
:1005A0000910891409114B08CE000800DF145F15EB
:1005B000DF150914891409114B08CF000800DF1456
:1005C0005F15DF150910891009154B08D0000800C8
:1005D000DF105F11DF11091489100915861CF32241
:1005E000061D022308005F100914891409154E081E
:1005F000AA00C8004F08AB00C9005008AC00CA00F0
:100600005F1408005F10C7015F140800FF3081000D
:100610000B11880121181C2BA118202B2119242B28
:10062000A119282B211A2C2BA11A302B211B362B78
:100630002208870008143C2B2308870088143F2BCE
:10064000240887000815422B250887008815452BAC
:10065000260887000816482B2708870088164B2B8A
:10066000DF1C4E2B2808870008174E2BDF1C512B50
:10067000290887008817512B0130A1060800033094
:10068000A10608000630A10608000C30A1060800EB
:100690001830A10608003030A10608006030A1061D
:0606A0000800A1010800A2
:04400E00D430FF3F6C
:00000001FF
