:060000000A128A11142906
:10000800F000030EF1000B1815280A128A112018A7
:100018009D29A018F8292019052AA019122A201AA2
:0C0028001F2A710E8300F00E700E0900FC
:100200008A010A140F3982073F3406345B344F34B5
:1002100066346D347D3407347F346F3477347C3406
:1002200039345E34793471340317831688018901B7
:1002300003138316061486140615861206138613F6
:100240008501870188018901031383168113031334
:10025000831607309500031383160F128F160F13A2
:100260000F140313831607309600031383120B1029
:100270008B178B158B160B110313831681128111AB
:100280000114811401150313831290161016901097
:100290001014031383124E309200031383168C1430
:1002A0000C14031383128C100C100313831285019A
:1002B000860187018801890123225C292A08AF0071
:1002C000AD010A302F020318AD0A0318AF0003185E
:1002D00061296B210800AE010130AF020318AE0A9C
:1002E000031C08006C292B08B200B0010A3032024E
:1002F0000318B00A0318B2000318762980210800F9
:10030000B1010130B2020318B10A031C08008129AF
:100310002C08B500B4010A3035020318B40A0318DA
:10032000B50003188B2995210800B3010130B502EF
:100330000318B30A031C080096290800AA0A1430FF
:10034000AA02031D861C0A30AA005E21AD08002106
:10035000A200AE080021A3000800AA030A30AA02E6
:10036000031D061D1430AA005E21AD080021A20065
:10037000AE080021A3000800AB0A1430AB02031D35
:10038000861C0A30AB007321B0080021A200B1081E
:100390000021A3000800AB030A30AB02031D061DB9
:1003A0001430AB007321B0080021A200B108002175
:1003B000A3000800AC0A1430AC02031D861C0A30EE
:1003C000AC008821B4080021A200B3080021A300DA
:1003D0000800AC030A30AC02031D061D1430AC004B
:1003E0008821B4080021A200B3080021A30008005E
:1003F0000910891409110A30AA00861C9E29061DBD
:10040000AD29061CA0140B10152809148914091114
:100410000A30AB00861CBC29061DCB29061C201502
:100420000B1015280910891009150A30AC00861C1C
:10043000DA29061DE929061CA0150B101528091438
:1004400089100915080088012118362AA1183A2AAE
:1004500021193E2AA119422A211A462AA11A4A2AFA
:10046000211B4E2AA20887000814522AA3088700DD
:100470008814552AA40887000815582AA50887005B
:1004800088155B2AA608870008165E2AA708870039
:100490008816612AA80887000817642AA908870017
:1004A0008817672A0130A10608000330A10608005A
:1004B0000630A10608000C30A10608001830A1067D
:1004C00008003030A10608006030A1060800A10134
:0204D000080022
:04400E00D430FF3F6C
:00000001FF
