:060000000A128A11132907
:10000800F000030EF1000B18D8210B100B191C235C
:100018000C18EB210C10710E8300F00E700E090005
:100200008A010A1482073F3406345B344F34663463
:100210006D347D3407347F346F3477347C34393433
:100220005E3479347134031783168801890103130E
:100230008316061486140615861206138613850186
:100240008701880189010313831681130313831621
:1002500007309500031383160F128F160F130F1418
:100260000313831607309600031383120B108B17AA
:100270008B158B160B110313831681128111011438
:100280008114011503138312901610169010101488
:10029000031383124E309200031383168C140C1434
:1002A000031383128C100C10031383128501860133
:1002B000870188018901A0010A30AA00C8000A301C
:1002C000AB00C9000A30AC00CA000A30CB005F1492
:1002D0005F180E22013047020319D922023047026B
:1002E0000319E222033047020319EB2204304702CC
:1002F0000319F422053047020319C701842199210B
:10030000AE21C321C02268292A08B000AE010A30FC
:1003100030020318AE0A0318B00003188729912190
:100320000800AF010130B0020318AF0A031C080037
:1003300092292B08B300B1010A3033020318B10A25
:100340000318B30003189C29A6210800B20101304C
:10035000B3020318B20A031C0800A7292C08B60030
:10036000B5010A3036020318B50A0318B60003189F
:10037000B129BB210800B4010130B6020318B40A48
:10038000031C0800BC294B08B900CC010A30390213
:100390000318CC0A0318B9000318C629D021080095
:1003A000CD010130B9020318CD0A031C0800D12980
:1003B000061CC70A861CCB0A15304B02031DE22916
:1003C0000A30CB00061DCB0309304B02031DEA297E
:1003D0001430CB0008000C18031383127C308E00FD
:1003E000E1308F00C00A2018FE29A018062AAA03AF
:1003F000031D0D2A4808AA0020140800AB03031DA2
:100400000D2A4908AB002010A0140800AC03031DFE
:100410000D2A4A08AC00A001080008005118372A2C
:10042000D118482A5119562AD119682A511A792AFD
:10043000D11A872A511B992AD11BAA2A5218B92AE4
:1004400003110510851005158515051285128616F0
:10045000061386132A08E3000630E3026308E2006D
:100460004008E302031D362A051151140800031148
:100470000515C830E000E00B3B2A05110330620788
:10048000E4004008E402031D472A5110D11408007B
:100490000311851406306207BC004008BC02031D2E
:1004A000552AD11051158510C0010800031185117E
:1004B000051485162B08E3000630E3026308E2000A
:1004C0004008E302031D672A85125111D115080067
:1004D00003118516C830E000E00B6C2A851203304A
:1004E0006207E4004008E402031D782AD111511686
:1004F00008000311051606306207BC004008BC0264
:10050000031D862A5112D1160512C00108000311DD
:100510008612851586172B08E3000530E302630871
:10052000E2004008E302031D982A8613D1125117F6
:10053000080003118617C830E000E00B9D2A8613DF
:1005400003306207E4004008E402031DA92A5113A6
:10055000D11708000311061706306207BC004008D7
:10056000BC02031DB82AD113521406138616C0010B
:100570000800E301E401BC01E201D10152100800CE
:100580002E080021A2002F080021A300310800211D
:10059000A40032080021A50035080021A600340877
:1005A0000021A7004C080021A8004D080021A90047
:1005B0000800DF145F15DF150910891409114B08B5
:1005C000CE000800DF145F15DF1509148914091126
:1005D0004B08CF000800DF145F15DF1509108910E4
:1005E00009154B08D0000800DF105F11DF11091456
:1005F00089100915861CFF22061D162308005F10AE
:100600000914891409154E08AA00C8004F08AB0048
:10061000C9005008AC00CA00D101D201E301E401D5
:10062000BC01E201C001A0015F1408005F10C70116
:10063000D101D2015F140800FF3081000B11880145
:100640002118322BA118362B21193A2BA1193E2B38
:10065000211A422BA11A462B211B4C2B2208870062
:100660000814522B230887008814552B2408870070
:100670000815582B2508870088155B2B260887004E
:1006800008165E2B270887008816612BDF1C642B59
:10069000280887000817642BDF1C672B29088700B0
:1006A0008817672B0130A10608000330A106080057
:1006B0000630A10608000C30A10608001830A1067B
:1006C00008003030A10608006030A1060800A10132
:0206D000080020
:04400E00D430FF3F6C
:00000001FF
